:107000000C942A380C9472390C9445380C944538F9
:107010000C9445380C9445380C9445380C944538FC
:107020000C9445380C9445380C9445380C944538EC
:107030000C9445380C9445380C9445380C944538DC
:107040000C9445380C9445380C9445380C944538CC
:107050000C94453811241FBECFE5D8E0DEBFCDBF6C
:1070600010E0A0E6B0E0E4E8FEE702C005900D9273
:10707000A23FB107D9F711E0A2EFB0E001C01D9225
:10708000A83AB107E1F70C94B8380C940038089589
:107090000895AC0120E030E0E0EAFFE005C0CF0158
:1070A0000197F1F72F5F3F4F24173507C4F3089579
:1070B0001F931FB7F894E199FECFF7E0660F771F93
:1070C000881F991FFA95D1F783E0FB018093570041
:1070D000E89507B600FCFDCFAB01AAE0B1E031E0D6
:1070E0002C91FD0181819927982F8827820F911D6E
:1070F0000C01FA0130935700E895112412964E5F67
:107100005F4FF1E0AA38BF0759F785E0FB01809394
:107110005700E89507B600FCFDCF81E1809357004A
:10712000E8951FBF1F9108958091F900882351F0C1
:107130006091FD0066956093FD0077278827992769
:107140000E94583868E08FE20E943E3C61E08FE286
:107150000E943E3C61E080E00E943E3C81E08BBFAB
:107160001BBE7894E091F200F091F3000995089528
:10717000CFE5D8E0DEBFCDBFF89481E08BBF82E0E1
:107180008BBF7894D49ADC9A84E690E00E944938C8
:10719000DC9884E690E00E94493889B39927FC0185
:1071A000E071F07084FD1AC084918F3FB9F0CF9BDD
:1071B00015C00E94DB3D10E083E80E94E83D8AE0B4
:1071C00090E00E9449380E94EC3D833839F01F5FFF
:1071D000153091F70E9494380E9494381092F9006B
:1071E0006BE870E084EA90E00E944F3C81E299E312
:1071F0000E945C3C80E690E00E94F83C81E690E0D2
:107200000E94F83C8AE790E00E94F83C0E94993C7A
:107210000E940C3C0E94663DDC9A84E690E00E944D
:107220004938DC9884E690E00E944938DC9A84E68C
:1072300090E00E944938DC9880E293E00E9449384F
:10724000EBCFFC018091FA00823041F0853009F4E7
:1072500048C08130B9F50E94943808952091FD000E
:10726000822F992780FF1FC01092F900213019F456
:107270001092F40007C0019762E070E00E941B3F8B
:107280006093F400DF01EAE4F1E08D91819381E005
:10729000EA38F807D1F76091F40077278827992713
:1072A0000E9458380CC081E08093F900DF01EAE0C9
:1072B000F1E08D91819381E0EA34F807D1F71092E3
:1072C000FA00089580818093FA00823021F4818150
:1072D0008093FD000895813021F40E94943810922B
:1072E000FA0008951F920F920FB60F9211242F9358
:1072F0003F934F935F936F937F938F939F93AF933E
:10730000BF93EF93FF930E94403DFF91EF91BF9198
:10731000AF919F918F917F916F915F914F913F912D
:107320002F910F900FBE0F901F90189587E28093BA
:107330008B0185E280938A0190E290938C011092F8
:107340008D0128E030E030938F0120938E0183E29D
:107350008093970181E28093960190939801109217
:10736000990130939B0120939A010895089568E054
:107370008BE20E943E3C63E188E20E943E3C68E072
:107380008FE20E943E3C62E18CE20E943E3C61E062
:107390008FE20E943E3C68E083E30E943E3C61E154
:1073A00080E30E943E3C65E083E20E943E3C0895FB
:1073B0000F931F93CF93DF93EC0128853985121625
:1073C0001306DCF58E819F81821793071CF568E018
:1073D00083E20E943E3C00E010E00FC08A859B855E
:1073E000E80FF91F608181E20E943E3C8E819F81FF
:1073F00001969F838E830F5F1F4FEE81FF818885EB
:107400009985083011051CF4E817F9073CF3E817D3
:10741000F90724F061E087E20E943E3C8B818130D5
:1074200031F465E089810E943E3C1B8206C061E028
:1074300089810E943E3C81E08B83DF91CF911F9137
:107440000F910895CF93DF93CDB7DEB724970FB692
:10745000F894DEBF0FBECDBFDC01FC012281338179
:1074600010929D0110929C0181E080939901832FDD
:1074700099278230E1F0833031F1813009F050C03A
:10748000E0910601F09107018081992790939F0177
:1074900080939E01F093A101E093A001FD018681FC
:1074A000978180349105E1F588E090E021C0FD01ED
:1074B0008681978190939F0180939E01809108011E
:1074C0009091090129C0E22F8091F7009091F80076
:1074D000222399F0FF27EE0FFF1FE80FF91F0190FD
:1074E000F081E02DF093A101E093A0018081992724
:1074F00090939F0180939E0113C094E0998383E051
:107500008A8389E08B839C8384E090E090939F0141
:1075100080939E01CE0101969093A1018093A001DA
:1075200086E991E00E94D83924960FB6F894DEBF20
:107530000FBECDBFDF91CF910895CF93DF9382E24D
:107540000E94253CC82FDD27C5FF1AC068E083E2F2
:107550000E943E3CC6FF10C020919C0130919D01CD
:1075600080919E0190919F01281739072CF486E99C
:1075700091E00E94D83904C061E087E20E943E3C5D
:10758000DF91CF9108958AE00E94253C80FF03C0DF
:107590000E949D3A08958AE20E94253C82E30E945F
:1075A000253C8AE30E94253C08958EE00E94253CFC
:1075B00008951F93CF93DF9388E00E94253C182FF6
:1075C00086EB90E00E944C3CC12FDD27C6FF1CC01B
:1075D00060E085E00E943E3C60E884E00E943E3C22
:1075E00060E080E20E943E3C68E083E20E943E3C14
:1075F00061E087E20E943E3C62E085E00E943E3C02
:1076000082EC90E00E944C3CC4FF04C060EC89E036
:107610000E943E3C17FF04C060ED89E00E943E3CA2
:10762000C3FF04C08AEC90E00E944C3CDF91CF91F4
:107630001F9108950F931F93CF93DF93CDB7DEB7BC
:1076400028970FB6F894DEBF0FBECDBF86E20E942A
:10765000253C86FF76C08E010F5F1F4F80918A0107
:107660000E94253CF80181938F01CE010996E8170D
:10767000F907A1F78E010F5F1F4F68E087E20E94B4
:107680003E3C68E083E20E943E3C80E20E94253C52
:107690008F77682F80E20E943E3C898199279C0168
:1076A000207630702032310579F12034310591F1A6
:1076B000232BC1F58F719070892B79F5F8018181A9
:1076C000863051F0873018F48530C9F409C089300C
:1076D00079F08B30A1F410C0C8010E94223A2AC070
:1076E00060E480E20E943E3C6B81605884E020C0F0
:1076F000C8010E94B7391EC065E083E219C080ED61
:1077000090E00E944C3C0EC066E971E0C8010E9406
:10771000483803C0C8010E94473886E991E00E94BA
:10772000D83908C080E20E94253C8058682F80E24A
:107730000E943E3CF80180818823D1F465E083E219
:1077400015C020919E0130919F0180919A019091E6
:107750009B018217930764F410929F0110929E017F
:1077600068E083E20E943E3C61E087E20E943E3C8A
:1077700028960FB6F894DEBF0FBECDBFDF91CF9134
:107780001F910F9108950F931F93CF93DF93CDB760
:10779000DEB7C054D0400FB6F894DEBF0FBECDBFE9
:1077A0008CE00E94253C992780FF03C00E941A3B71
:1077B00027C081FF25C08EE20E94253C8DE20E94F9
:1077C000253C89838E010F5F1F4F0F5F1F4F0E9463
:1077D000183CF8018083CE01805C9F4F0817190781
:1077E000A1F7E091FB00F091FC00CE010196099514
:1077F00068E08FE20E943E3C61E08FE20E943E3CE6
:10780000C05CDF4F0FB6F894DEBF0FBECDBFDF9177
:10781000CF911F910F91089585B7826085BF8BB777
:1078200080648BBF88EF81BB82B3886382BB08957D
:1078300082B328E1822782BB0000000083B30000EE
:1078400092B3922792BB992708959FEF94BB85BB73
:1078500082B398E6892782BB82B3892782BB000066
:1078600014BA0E94183C9927089585BB82B398E208
:10787000892782BB82B3892782BB089585BB8FEF9E
:1078800084BB82B398E6892782BB82B3892782BBF7
:10789000862F0E94353C08950E94FF3D08959093E5
:1078A000070180930601709309016093080110920B
:1078B000F6001092F50008959093FC008093FB0071
:1078C0000895EF92FF921F93CF93DF937C01C091B5
:1078D000F500D091F600209711F011E012C085E07C
:1078E00090E00E94223EFC019093F6008093F50008
:1078F000F182E08212821482138210E012C01F5FB4
:10790000EC018B819C810097D1F785E090E00E948B
:10791000223EFC019C838B83F182E08212831482DD
:107920001382812F9927DF91CF911F91FF90EF90C4
:107930000895EF92FF920F931F93CF93DF93E091FF
:10794000F500F091F60080E090E00380F481E02DF6
:1079500001963097D1F7880F991F0E94223E90938D
:10796000F8008093F7000091F5001091F600E8010F
:10797000E880F9808A81C82FDD27CC0FDD1F809138
:10798000F7009091F800C80FD91FF701808199275F
:107990000E94223E9983888320E030E0D70114C002
:1079A000E801EA81FF27EE0FFF1F8091F700909119
:1079B000F800E80FF91F0190F081E02DE20FF31FAE
:1079C0008D9180832F5F3F4FF70180819927281782
:1079D000390734F3E8018B819C81009711F08C0109
:1079E000C6CFDF91CF911F910F91FF90EF90089537
:1079F000EF92FF920F931F93CF93DF938C01FC01C3
:107A000001900020E9F73197E81BF90BEE0FFF1FFB
:107A1000CF0102960E94223E7C01BC01F801019038
:107A20000020E9F73197E01BF10BEE0FFF1FEE5F2F
:107A3000DC01EC9383E0E701898340E050E0F8014A
:107A400001900020E9F73197E01BF10B980108C085
:107A5000D9018D919D01EB01888319824F5F5F4FA2
:107A60006E5F7F4F4E175F0798F3C7010E94613C1E
:107A70009927DF91CF911F910F91FF90EF9008957B
:107A80001F9386E00E94253C992786FF03C00E9431
:107A9000C33B0EC082FF03C00E94C33A09C081FFEE
:107AA00003C00E94D93A04C084FF02C00E94D53AA4
:107AB00087E00E94253C182F60E087E00E943E3C52
:107AC000612F87E00E943E3C1F9108950E949639E5
:107AD00061E080E00E943E3C80E00E94253C80FD09
:107AE000FBCF62E081E00E943E3C60E18FE00E94BB
:107AF0003E3C60E884E00E943E3C60E480E20E94FC
:107B00003E3C68E083E20E943E3C69E087E20E94DE
:107B10003E3C6FE08DE00E943E3C6FE08BE00E94B7
:107B20003E3C60E589E00E943E3C66ED87E00E94B5
:107B30003E3C62E085E00E943E3C6CEC80E00E94AE
:107B40003E3C08950F931F93182F80ED97E00E94FD
:107B50004938DC9A88EC90E00E944938DC9888EC3F
:107B600090E00E944938DC9A88EC90E00E94493805
:107B7000DC9888EE93E00E94493800E010FF09C0CD
:107B8000DC9A88EE93E00E944938DC9888EC90E01B
:107B900008C0DC9A88EC90E00E944938DC9888EEB6
:107BA00093E00E9449380F5F083011F01695E6CF38
:107BB0001F910F91089580EC8BB988E18AB986E80E
:107BC00080BD10BC8AE189B98CB15F99FDCF089561
:107BD0005D9BFECF8CB908958CB1992708958A33A7
:107BE00010F4805301C087556A3310F4605301C00C
:107BF00067558295807F6F70862B99270895FC01C9
:107C000004C05D9BFECF31968CB980818823C9F773
:107C10000895982F92959F708F709A3020F45D9BF5
:107C2000FECF905D03C05D9BFECF995A9CB98A3010
:107C300020F45D9BFECF805D03C05D9BFECF895A23
:107C40008CB90895CF93DF93AC01029710F442E012
:107C500050E0A091A601B091A701FD01C0E0D0E0E5
:107C600020E030E020C0808191818417950769F47D
:107C700082819381209719F09B838A8304C090931B
:107C8000A7018093A601CF0132C04817590738F4E5
:107C90002115310519F08217930708F49C01EF01B3
:107CA0000280F381E02D3097F1F62115310589F13D
:107CB000C901841B950B049708F4A901E0E0F0E0EA
:107CC00026C08D919C91119782179307E9F448176C
:107CD000590779F4ED018A819B81309719F09383DC
:107CE000828304C09093A7018093A601CD010296E0
:107CF00049C0841B950BFD01E80FF91F4193519377
:107D000002978D939C933AC0FD01A281B381109795
:107D1000C1F68091A4019091A501892B41F4809135
:107D2000ED009091EE009093A5018093A401209125
:107D3000EF003091F0002115310541F42DB73EB729
:107D40008091EB009091EC00281B390BE091A4018D
:107D5000F091A5012E1B3F0B2417350788F0CA01AF
:107D600002962817390760F0CF01840F951F0296FD
:107D70009093A5018093A40141935193CF0102C038
:107D800080E090E0DF91CF910895CF93DF9300974B
:107D900009F44EC0EC0122971B821A82A091A60121
:107DA000B091A701109711F140E050E001C0DC0153
:107DB000AC17BD0700F1BB83AA83FE01219131916D
:107DC000E20FF31FEA17FB0771F42E5F3F4F8D910F
:107DD0009C911197820F931F99838883FD01828163
:107DE00093819B838A834115510559F4D093A70150
:107DF000C093A6011DC0FD0182819381AD01009752
:107E0000B1F6FA01D383C28321913191E20FF31FBE
:107E1000EC17FD0769F42E5F3F4F88819981820F2F
:107E2000931FFA01918380838A819B81938382834C
:107E3000DF91CF91089597FB092E07260AD077FD91
:107E400004D00CD006D000201AF4709561957F4FB5
:107E50000895F6F7909581959F4F0895AA1BBB1B37
:107E600051E107C0AA1FBB1FA617B70710F0A61B3A
:107E7000B70B881F991F5A95A9F780959095BC015B
:047E8000CD01089593
:107E84000055534270726F6720456D626564646586
:107E94006450726F6A656374730075736270726F95
:107EA4006742617365204D6F646500090219000122
:107EB4000100A01A090400000100000000070502E7
:107EC4000240000012011001000000088117620C3A
:107ED400000001020001616C74206576656E740D0A
:107EE4000A0072657365740D0A00656F700D0A00EF
:107EF400756E737570706F72746564207374616EDF
:107F040064617264207265710A0D002000A801008A
:027F140000006B
:040000030000700089
:00000001FF
